{
  "contractName": "TokenCrowdsale",
  "abi": [
    {
      "inputs": [
        {
          "internalType": "uint256",
          "name": "_rate",
          "type": "uint256"
        },
        {
          "internalType": "address payable",
          "name": "_wallet",
          "type": "address"
        },
        {
          "internalType": "contract ERC20",
          "name": "_token",
          "type": "address"
        },
        {
          "internalType": "uint256",
          "name": "_cap",
          "type": "uint256"
        }
      ],
      "payable": false,
      "stateMutability": "nonpayable",
      "type": "constructor"
    },
    {
      "anonymous": false,
      "inputs": [
        {
          "indexed": true,
          "internalType": "address",
          "name": "purchaser",
          "type": "address"
        },
        {
          "indexed": true,
          "internalType": "address",
          "name": "beneficiary",
          "type": "address"
        },
        {
          "indexed": false,
          "internalType": "uint256",
          "name": "value",
          "type": "uint256"
        },
        {
          "indexed": false,
          "internalType": "uint256",
          "name": "amount",
          "type": "uint256"
        }
      ],
      "name": "TokenPurchase",
      "type": "event"
    },
    {
      "payable": true,
      "stateMutability": "payable",
      "type": "fallback"
    },
    {
      "constant": false,
      "inputs": [
        {
          "internalType": "address",
          "name": "_beneficiary",
          "type": "address"
        }
      ],
      "name": "buyTokens",
      "outputs": [],
      "payable": true,
      "stateMutability": "payable",
      "type": "function"
    },
    {
      "constant": true,
      "inputs": [],
      "name": "cap",
      "outputs": [
        {
          "internalType": "uint256",
          "name": "",
          "type": "uint256"
        }
      ],
      "payable": false,
      "stateMutability": "view",
      "type": "function"
    },
    {
      "constant": true,
      "inputs": [],
      "name": "capReached",
      "outputs": [
        {
          "internalType": "bool",
          "name": "",
          "type": "bool"
        }
      ],
      "payable": false,
      "stateMutability": "view",
      "type": "function"
    },
    {
      "constant": true,
      "inputs": [
        {
          "internalType": "address",
          "name": "",
          "type": "address"
        }
      ],
      "name": "contributions",
      "outputs": [
        {
          "internalType": "uint256",
          "name": "",
          "type": "uint256"
        }
      ],
      "payable": false,
      "stateMutability": "view",
      "type": "function"
    },
    {
      "constant": true,
      "inputs": [],
      "name": "investorHardCap",
      "outputs": [
        {
          "internalType": "uint256",
          "name": "",
          "type": "uint256"
        }
      ],
      "payable": false,
      "stateMutability": "view",
      "type": "function"
    },
    {
      "constant": true,
      "inputs": [],
      "name": "investorMinCap",
      "outputs": [
        {
          "internalType": "uint256",
          "name": "",
          "type": "uint256"
        }
      ],
      "payable": false,
      "stateMutability": "view",
      "type": "function"
    },
    {
      "constant": true,
      "inputs": [],
      "name": "rate",
      "outputs": [
        {
          "internalType": "uint256",
          "name": "",
          "type": "uint256"
        }
      ],
      "payable": false,
      "stateMutability": "view",
      "type": "function"
    },
    {
      "constant": true,
      "inputs": [],
      "name": "token",
      "outputs": [
        {
          "internalType": "contract ERC20",
          "name": "",
          "type": "address"
        }
      ],
      "payable": false,
      "stateMutability": "view",
      "type": "function"
    },
    {
      "constant": true,
      "inputs": [],
      "name": "wallet",
      "outputs": [
        {
          "internalType": "address payable",
          "name": "",
          "type": "address"
        }
      ],
      "payable": false,
      "stateMutability": "view",
      "type": "function"
    },
    {
      "constant": true,
      "inputs": [],
      "name": "weiRaised",
      "outputs": [
        {
          "internalType": "uint256",
          "name": "",
          "type": "uint256"
        }
      ],
      "payable": false,
      "stateMutability": "view",
      "type": "function"
    },
    {
      "constant": true,
      "inputs": [
        {
          "internalType": "address",
          "name": "_beneficiary",
          "type": "address"
        }
      ],
      "name": "getUserContribution",
      "outputs": [
        {
          "internalType": "uint256",
          "name": "",
          "type": "uint256"
        }
      ],
      "payable": false,
      "stateMutability": "view",
      "type": "function"
    }
  ],
  "bytecode": "0x608060405266071afd498d00006005556802b5e3af16b188000060065534801561002857600080fd5b5060405161062e38038061062e8339818101604052608081101561004b57600080fd5b5080516020820151604083015160609093015191929091808484848261007057600080fd5b6001600160a01b03821661008357600080fd5b6001600160a01b03811661009657600080fd5b600292909255600180546001600160a01b039283166001600160a01b03199182161790915560008054929093169116179055806100d257600080fd5b60045550505050610546806100e86000396000f3fe60806040526004361061009c5760003560e01c8063521eb27311610064578063521eb27314610154578063b25d7f5414610185578063bb8b2b471461019a578063ec8ac4d8146101cd578063ed5db874146101f3578063fc0c546a146102085761009c565b80632c4e722e146100a7578063355274ea146100ce5780634042b66f146100e357806342e94c90146100f85780634f9359451461012b575b6100a53361021d565b005b3480156100b357600080fd5b506100bc6102bf565b60408051918252519081900360200190f35b3480156100da57600080fd5b506100bc6102c5565b3480156100ef57600080fd5b506100bc6102cb565b34801561010457600080fd5b506100bc6004803603602081101561011b57600080fd5b50356001600160a01b03166102d1565b34801561013757600080fd5b506101406102e3565b604080519115158252519081900360200190f35b34801561016057600080fd5b506101696102ee565b604080516001600160a01b039092168252519081900360200190f35b34801561019157600080fd5b506100bc6102fd565b3480156101a657600080fd5b506100bc600480360360208110156101bd57600080fd5b50356001600160a01b0316610303565b6100a5600480360360208110156101e357600080fd5b50356001600160a01b031661021d565b3480156101ff57600080fd5b506100bc61031e565b34801561021457600080fd5b50610169610324565b346102288282610333565b6000610233826103a7565b600354909150610249908363ffffffff6103c416565b60035561025683826103d1565b604080518381526020810183905281516001600160a01b0386169233927f623b3804fa71d67900d064613da8f94b9617215ee90799290593e1745087ad18929081900390910190a36102a883836103db565b6102b06103df565b6102ba83836103db565b505050565b60025481565b60045481565b60035481565b60076020526000908152604090205481565b600454600354101590565b6001546001600160a01b031681565b60055481565b6001600160a01b031660009081526007602052604090205490565b60065481565b6000546001600160a01b031681565b61033d828261041b565b6001600160a01b03821660009081526007602052604081205490610367828463ffffffff6103c416565b9050600554811015801561037d57506006548111155b61038657600080fd5b6001600160a01b039093166000908152600760205260409020929092555050565b60006103be6002548361044690919063ffffffff16565b92915050565b818101828110156103be57fe5b6103db828261046b565b5050565b6001546040516001600160a01b03909116903480156108fc02916000818181858888f19350505050158015610418573d6000803e3d6000fd5b50565b61042582826104f4565b60045460035461043b908363ffffffff6103c416565b11156103db57600080fd5b600082610455575060006103be565b508181028183828161046357fe5b04146103be57fe5b600080546040805163a9059cbb60e01b81526001600160a01b038681166004830152602482018690529151919092169263a9059cbb92604480820193602093909283900390910190829087803b1580156104c457600080fd5b505af11580156104d8573d6000803e3d6000fd5b505050506040513d60208110156104ee57600080fd5b50505050565b6001600160a01b03821661050757600080fd5b806103db57600080fdfea265627a7a72315820eda60bab681a1be9212c44592717c8fd74e61d18035d27d76b21d2b14e8eb97464736f6c63430005100032",
  "source": "pragma solidity 0.5.16;\n\nimport './TokenSPC.sol';\nimport \"openzeppelin-solidity/contracts/token/ERC20/ERC20.sol\";\nimport \"openzeppelin-solidity/contracts/token/ERC20/PausableToken.sol\";\nimport \"openzeppelin-solidity/contracts/crowdsale/Crowdsale.sol\";\nimport \"openzeppelin-solidity/contracts/crowdsale/validation/CappedCrowdsale.sol\";\n\n\n\ncontract TokenCrowdsale is Crowdsale, CappedCrowdsale {\n\n  //Minim invest contrib\n  //Max invest contrib\n  uint256 public investorMinCap = 2000000000000000;\n  uint256 public investorHardCap = 50000000000000000000;\n  mapping(address => uint256) public contributions;\n\n  \n\n\n  constructor(\n    uint256 _rate,\n    address payable _wallet,\n    ERC20 _token,\n    uint256 _cap\n  )\n    Crowdsale(_rate, _wallet, _token)\n    CappedCrowdsale(_cap)\n    public\n  {\n\n    \n  \n  }\n\n\n  function getUserContribution(address _beneficiary)\n  public view returns(uint256)\n  {\n    return contributions[_beneficiary];\n  }\n\n  function _preValidatePurchase(\n    address _beneficiary, \n    uint256 _weiAmount\n  )\n  internal\n  {\n    super._preValidatePurchase(_beneficiary,_weiAmount);\n    uint256 _existingContribution = contributions[_beneficiary];\n    uint256 _newContribution = _existingContribution.add(_weiAmount);\n    require(_newContribution >= investorMinCap && _newContribution <= investorHardCap);\n    contributions[_beneficiary] = _newContribution;\n  }\n\n\n\n \n\n\n\n\n\n\n  \n}\n",
  "sourcePath": "C:\\Users\\sasvr\\Downloads\\ICO-VRI\\contracts\\TokenCrowdsale.sol",
  "compiler": {
    "name": "solc",
    "version": "0.5.16+commit.9c3226ce.Emscripten.clang"
  },
  "schemaVersion": "3.0.23",
  "updatedAt": "2020-05-07T13:10:35.879Z",
  "networkType": "ethereum",
  "devdoc": {
    "methods": {
      "buyTokens(address)": {
        "details": "low level token purchase ***DO NOT OVERRIDE***",
        "params": {
          "_beneficiary": "Address performing the token purchase"
        }
      },
      "capReached()": {
        "details": "Checks whether the cap has been reached.",
        "return": "Whether the cap was reached"
      }
    }
  },
  "userdoc": {
    "methods": {}
  }
}